:100000000C945C000C946E000C946E000C946E00CA
:100010000C946E000C946E000C946E000C946E00A8
:100020000C946E000C946E000C946E000C94BA004C
:100030000C946E000C946E000C946E000C946E0088
:100040000C9470000C946E000C946E000C946E0076
:100050000C946E000C946E000C946E000C946E0068
:100060000C946E000C946E00000000080002010069
:100070000003040700000000000000000000000072
:10008000250028002B0000000000240027002A0083
:10009000040404040404040402020202020203032E
:1000A0000303030301020408102040800102040836
:1000B000102001020408102011241FBECFEFD8E049
:1000C000DEBFCDBF21E0A0E0B1E001C01D92AA30AB
:1000D000B207E1F70E9421010C94A1010C940000E9
:1000E0001F920F920FB60F9211242F933F938F936D
:1000F0009F93AF93BF938091060190910701A091C8
:100100000801B09109013091050123E0230F2D373B
:1001100058F50196A11DB11D20930501809306019C
:1001200090930701A0930801B09309018091010108
:1001300090910201A0910301B09104010196A11DCB
:10014000B11D8093010190930201A0930301B0932C
:100150000401BF91AF919F918F913F912F910F908B
:100160000FBE0F901F90189526E8230F0296A11D31
:10017000B11DD2CF1F920F920FB60F9211242F9361
:100180008F939F93AF93BF93EF93FF93E1E7F0E0DB
:100190009491EDEAF0E08491E9E9F0E0E491EE2356
:1001A000D9F020910001992339F0933089F130F58D
:1001B0009130A1F19230B1F1F0E0EE0FFF1FE45861
:1001C000FF4FA591B4919FB7F894EC91211137C0DE
:1001D00080958E238C939FBF8091000191E08927A9
:1001E00080930001FF91EF91BF91AF919F918F910B
:1001F0002F910F900FBE0F901F9018959730A9F078
:100200009830C9F09430C1F6909180009F7D03C072
:10021000909180009F7790938000CECF94B59F7788
:1002200094BDCACF94B59F7DFBCF9091B0009F77CE
:100230009093B000C1CF9091B0009F7DF9CF8E2BED
:10024000C9CF789484B5826084BD84B5816084BD53
:1002500085B5826085BD85B5816085BD80916E0064
:10026000816080936E001092810080918100826095
:1002700080938100809181008160809381008091D2
:1002800080008160809380008091B10084608093C1
:10029000B1008091B00081608093B00080917A00BD
:1002A000846080937A0080917A00826080937A00E3
:1002B00080917A00816080937A0080917A008068D2
:1002C00080937A001092C100EDEAF0E02491E9E910
:1002D000F0E08491882399F090E0880F991FFC0149
:1002E000EA57FF4FA591B491FC01E458FF4F859167
:1002F00094918FB7F894EC91E22BEC938FBFF89424
:1003000010928000109281008FE19EE4909389000A
:100310008093880080918100856080938100809126
:10032000810088608093810080916F00826080935B
:100330006F007894C0E0D0E02097F1F30E940000B5
:06034000FBCFF894FFCF93
:00000001FF
